:100000000C942A000C9447000C9447000C94470071
:100010000C9447000C9447000C9447000C94470044
:100020000C9447000C9447000C9498010C947101B7
:100030000C9447000C9447000C9447000C94470024
:100040000C9447000C9447000C9447000C94470014
:100050000C94470011241FBECFE5D8E0DEBFCDBF12
:1000600010E0A0E6B0E0E8EDF5E002C005900D92EA
:10007000AA36B107D9F720E0AAE6B0E001C01D9288
:10008000AE36B207E1F70E94BF010C94EA020C946D
:1000900000008FEF8ABB87BB08951BBA9BB321E09A
:1000A00030E001C0220F8A95EAF7922B9BBB08959E
:1000B000CF93C62F0E944D00EC2FF0E0E05AFF4F87
:1000C0008081809588BBCF910895833061F1A0F441
:1000D0008130C9F0823009F183B7806883BF83B76C
:1000E0008F7B83BF83B7877F83BF89B7816089BFD9
:1000F0008FB780688FBF08958430C1F0853061F775
:1001000083B7816015C083B7816083BF83B78D7F5C
:1001100083BF83B78B7F83BFDFCF83B78E7F83BFE0
:1001200083B78260F5CF83B78160F9CF83B78E7FC5
:1001300083BF83B78D7F83BF83B78460ECCF93B7D2
:10014000906893BF93B79F7B93BF93B7986093BF1B
:100150008CBF89B7826089BF8FB780688FBF6330DB
:10016000D9F028F4613041F0623081F008956430B4
:10017000B1F06530E9F0089583B7816083BF83B73C
:100180008D7F83BF83B78B7F83BF089583B78E7FB7
:1001900083BF83B78260F5CF83B78160F9CF83B720
:1001A0008E7F83BF83B78D7F83BF83B78460ECCF9F
:1001B00083B78160F6CF93B7906893BF93B79F7B67
:1001C00093BF93B7986093BF93B7906193BF93B772
:1001D0009F7D93BF8CBFBB9A6330D9F028F4613008
:1001E00041F0623081F008956430B1F06530E9F09B
:1001F000089583B7816083BF83B78D7F83BF83B743
:100200008B7F83BF089583B78E7F83BF83B7826060
:10021000F5CF83B78160F9CF83B78E7F83BF83B774
:100220008D7F83BF83B78460ECCF83B78160F6CFC7
:10023000BB9A93B79F7E93BF93B7906293BF93B7D8
:10024000906493BF93B7986093BF8330D9F028F43C
:10025000813041F0823081F008958430B1F08530F2
:10026000E9F0089583B7816083BF83B78D7F83BF33
:1002700083B78B7F83BF089583B78E7F83BF83B798
:100280008260F5CF83B78160F9CF83B78E7F83BF5C
:1002900083B78D7F83BF83B78460ECCF83B78160E2
:1002A000F6CF682F70E090E080E00E94F10123E338
:1002B00033E343E250E40E9455020E94C0016CBF48
:1002C000089583B78E7F83BF83B78D7F83BF83B746
:1002D0008B7F83BF83B7806183BF83B78F7D83BFED
:1002E00008951F920F920FB60F9211242F933F93F0
:1002F0004F935F936F937F938F939F93AF93BF932E
:10030000EF93FF93E0916A00F0916B000995FF91E4
:10031000EF91BF91AF919F918F917F916F915F917D
:100320004F913F912F910F900FBE0F901F901895F6
:100330001F920F920FB60F9211242F933F934F935A
:100340005F936F937F938F939F93AF93BF93EF933D
:10035000FF93E0916C00F0916D000995FF91EF9192
:10036000BF91AF919F918F917F916F915F914F91CD
:100370003F912F910F900FBE0F901F901895FFCFB8
:100380000E94340288F09F5798F0B92F9927B751EF
:10039000B0F0E1F0660F771F881F991F1AF0BA9529
:1003A000C9F714C0B13091F00E944E02B1E0089537
:1003B0000C944E02672F782F8827B85F39F0B93F29
:1003C000CCF3869577956795B395D9F73EF49095DC
:1003D0008095709561957F4F8F4F9F4F0895E8945A
:1003E00009C097FB3EF490958095709561957F4F7D
:1003F0008F4F9F4F9923A9F0F92F96E9BB2793952B
:10040000F695879577956795B795F111F8CFFAF43A
:10041000BB0F11F460FF1BC06F5F7F4F8F4F9F4F6B
:1004200016C0882311F096E911C0772321F09EE8C9
:10043000872F762F05C0662371F096E8862F70E02F
:1004400060E02AF09A95660F771F881FDAF7880F09
:100450009695879597F9089557FD9058440F551F25
:1004600059F05F3F71F04795880F97FB991F61F036
:100470009F3F79F087950895121613061406551FAD
:10048000F2CF4695F1DF08C0161617061806991F19
:10049000F1CF86957105610508940895E894BB270E
:1004A00066277727CB0197F908950E9468020C947C
:1004B000D9020E94CB0238F00E94D20220F095238C
:1004C00011F00C94C2020C94C80211240C944F0237
:1004D0000E942C0270F3959FC1F3950F50E0551FB9
:1004E000629FF001729FBB27F00DB11D639FAA2789
:1004F000F00DB11DAA1F649F6627B00DA11D661FD8
:10050000829F2227B00DA11D621F739FB00DA11DF8
:10051000621F839FA00D611D221F749F3327A00DB2
:10052000611D231F849F600D211D822F762F6A2F4E
:1005300011249F5750409AF0F1F088234AF0EE0FB3
:10054000FF1FBB1F661F771F881F91505040A9F7E0
:100550009E3F510580F00C94C2020C944F025F3F05
:10056000E4F3983ED4F3869577956795B795F7951C
:10057000E7959F5FC1F7FE2B880F911D9695879594
:1005800097F9089597F99F6780E870E060E0089513
:100590009FEF80EC089500240A941616170618069B
:1005A0000906089500240A94121613061406050677
:1005B0000895092E0394000C11F4882352F0BB0F08
:1005C00040F4BF2B11F460FF04C06F5F7F4F8F4F6B
:0805D0009F4F0895F894FFCF3E
:0A05D8003F065B4F666D7D077F6FE5
:00000001FF
