:100000000C942A000C94F3000C9447000C944700C5
:100010000C9475050C944E050C9447000C94470005
:100020000C9447000C9447000C94D0030C94A90343
:100030000C9447000C9447000C9447000C94470024
:100040000C9447000C9447000C9447000C94470014
:100050000C94470011241FBECFE5D8E0DEBFCDBF12
:1000600010E0A0E6B0E0E0E9FDE002C005900D92EE
:10007000AC36B107D9F720E0ACE6B0E001C01D9284
:10008000A937B207E1F70E9424010C94C6060C942C
:100090000000809170008D37F9F08F5F80937000C1
:1000A00080916F00843020F110926F0080916E007B
:1000B000813059F1609161008DEC689F612D1124B0
:1000C00066956695669580E00E94450280916F0076
:1000D0008F5F80936F00089580916100882329F0DD
:1000E0008091610081508093610010927000D8CFA0
:1000F00090916E00913009F059C08130C1F028F024
:10010000823069F18330E9F10895609161008DECEE
:10011000689F612D112466956695669580E00E9422
:10012000450280916F008F5F80936F00089560910A
:1001300061008DEC689F812D1124869586958695AA
:10014000982F990F990F890F880F681B81E00E94E3
:10015000450280916F008F5F80936F0008956091DA
:1001600061008DEC689F612D1124669566956695FA
:1001700082E00E94450280916F008F5F80936F0044
:100180000895609161008DEC689F812D1124869502
:1001900086958695982F990F990F890F880F681B60
:1001A00083E00E94450210926F00089580916F00D5
:1001B000882309F47FCF813009F0089560916100B0
:1001C0008DEC689F812D1124869586958695982FB4
:1001D000990F990F890F880F681B81E00E944502D3
:1001E00010926F0008951F920F920FB60F92112474
:1001F0008F9381E080936D0080936C008F910F90BE
:100200000FBE0F901F90189582309105B1F040F409
:10021000009781F0019719F415BAAA9A08950895E4
:100220008330910569F0049721F415BAAA9AAB9A24
:100230000895089515BAA89A089515BAA99A089527
:1002400015BAA99AAC9A0895A09AA29AA19AA39ACB
:10025000A49AA59A89E490E0909374008093730027
:1002600080E00E94FE010E9435028FB780688FBF38
:100270008BB780648BBF65E08CE70E949E0290E0A4
:1002800080E00E94040102E010E0D0E0C0E00F2E08
:10029000F5E0EF2EF02DFF24F3946894552452F8E6
:1002A000612C0F2EFAE0DF2EF02DB12CC12C9924F9
:1002B0009394A12C6894772471F8812C06C09091B6
:1002C0006100809160009817C8F080916D008130C6
:1002D000B1F780916C00813091F7E09261008091DC
:1002E00061008093600010926C00F0926E0083E0D9
:1002F00090E00E940401D3E0C0E0E1CF8091610072
:100300008093600080916D00811105C08091600034
:10031000853009F442C080916D00811117C0809131
:100320006000811113C0D0926100809161008093C0
:10033000600010926E000130110591F1043011053A
:10034000A1F1092D1A2DD92DCA2D08C080916D005B
:10035000813049F080916D00813091F08D2F9C2F7C
:100360000E940401B2CF809160008111F3CFD0923E
:1003700061008091610080936000D52DC62DEECF85
:1003800080916000853051F710926D00F0926E0000
:10039000052D162DD3E0C0E0E1CFD72DC82DDECF3F
:1003A0000B2D1C2DDB2DCC2DD9CF0B2D1C2DDB2D9A
:1003B000CC2DD4CF813069F028F0823089F08330A1
:1003C000B1F0089585B7816085BF85B7826085BF2C
:1003D000089585B78E7F85BF85B7826085BF0895F4
:1003E00085B78D7F85BF85B7816085BF089585B747
:1003F0008D7F85BF85B78E7F85BF0895813069F079
:1004000028F0823089F08330B1F0089585B7846098
:1004100085BF85B7886085BF089585B78B7F85BF09
:1004200085B7886085BF089585B7877F85BF85B705
:10043000846085BF089585B7877F85BF85B78B7F2B
:1004400085BF0895882319F0813041F008958BB756
:100450008F7D8BBF84B7846084BF08958BB78F7DF9
:100460008BBF84B78F7B84BF08958FEF8ABB87BB18
:1004700008951BBA9BB321E030E002C0220F331F66
:100480008A95E2F7922B9BBB0895CF93C62F0E94CB
:100490003902EC2FF0E0EE59FF4F8081809588BB48
:1004A000CF9108958330B1F170F48130D1F0823072
:1004B00009F583B78E7F83BF83B7826083BF83B71D
:1004C0008B7F83BF17C0843079F1853099F483B76F
:1004D000816083BF83B78D7F83BF83B7846083BF11
:1004E00009C083B7816083BF83B78D7F83BF83B724
:1004F0008B7F83BF83B7806883BF83B78F7B83BFC6
:1005000083B7877F83BF89B7816089BF8FB78068D2
:100510008FBF089583B7816083BF83B7826083BF35
:1005200083B78B7F83BFE6CF83B78E7F83BF83B7CD
:100530008D7F83BF83B7846083BFDCCF93B7906820
:1005400093BF93B79F7B93BF93B7986093BF8CBFC4
:1005500089B7826089BF8FB780688FBF633049F1E8
:1005600078F46130E1F0623051F483B78E7F83BF5D
:1005700083B7826083BF83B78B7F83BF089508955D
:10058000643009F1653051F483B7816083BF83B76C
:100590008D7F83BF83B7846083BF0895089583B739
:1005A000816083BF83B78D7F83BF83B78B7F83BF1A
:1005B000089583B7816083BF83B7826083BF83B7A9
:1005C0008B7F83BF089583B78E7F83BF83B78D7F73
:1005D00083BF83B7846083BF089593B7906893BF48
:1005E00093B79F7B93BF93B7986093BF93B7906186
:1005F00093BF93B79F7D93BF8CBFBB9A633049F184
:1006000078F46130E1F0623051F483B78E7F83BFBC
:1006100083B7826083BF83B78B7F83BF08950895BC
:10062000643009F1653051F483B7816083BF83B7CB
:100630008D7F83BF83B7846083BF0895089583B798
:10064000816083BF83B78D7F83BF83B78B7F83BF79
:10065000089583B7816083BF83B7826083BF83B708
:100660008B7F83BF089583B78E7F83BF83B78D7FD2
:1006700083BF83B7846083BF0895BB9A93B79F7E7F
:1006800093BF93B7906293BF93B7906493BF93B7B0
:10069000986093BF833049F178F48130E1F0823083
:1006A00051F483B78E7F83BF83B7826083BF83B7E4
:1006B0008B7F83BF08950895843009F1853051F40C
:1006C00083B7816083BF83B78D7F83BF83B7846027
:1006D00083BF0895089583B7816083BF83B78D7FFB
:1006E00083BF83B78B7F83BF089583B7816083BF48
:1006F00083B7826083BF83B78B7F83BF089583B73F
:100700008E7F83BF83B78D7F83BF83B7846083BFB2
:100710000895682F70E090E080E00E94CD0523E30B
:1007200033E343E250E40E9431060E949C056CBF13
:10073000089583B78E7F83BF83B78D7F83BF83B7D1
:100740008B7F83BF83B7806183BF83B78F7D83BF78
:1007500008951F920F920FB60F9211242F933F937B
:100760004F935F936F937F938F939F93AF93BF93B9
:10077000EF93FF93E0917100F09172000995FF9162
:10078000EF91BF91AF919F918F917F916F915F9109
:100790004F913F912F910F900FBE0F901F90189582
:1007A0001F920F920FB60F9211242F933F934F93E6
:1007B0005F936F937F938F939F93AF93BF93EF93C9
:1007C000FF93E0917300F09174000995FF91EF9110
:1007D000BF91AF919F918F917F916F915F914F9159
:1007E0003F912F910F900FBE0F901F90189583305F
:1007F000B1F170F48130D1F0823009F585B58E7F8A
:1008000085BD85B5826085BD85B58B7F85BD17C0EB
:10081000843079F1853099F485B5816085BD85B5E1
:100820008D7F85BD85B5846085BD09C085B5816036
:1008300085BD85B58D7F85BD85B58B7F85BD85B52E
:10084000806885BD85B58F7B85BD85B5877F85BD76
:1008500089B7816089BF8FB780688FBF089585B5DC
:10086000816085BD85B5826085BD85B58B7F85BD81
:10087000E6CF85B58E7F85BD85B58D7F85BD85B578
:10088000846085BDDCCF95B5906895BD95B59F7B9F
:1008900095BD95B5986095BD83BD89B7806889BFC2
:1008A0008FB780688FBF633049F178F46130E1F031
:1008B000623051F485B58E7F85BD85B5826085BD7A
:1008C00085B58B7F85BD08950895643009F1653045
:1008D00051F485B5816085BD85B58D7F85BD85B5B4
:1008E000846085BD0895089585B5816085BD85B511
:1008F0008D7F85BD85B58B7F85BD089585B581606C
:1009000085BD85B5826085BD85B58B7F85BD089524
:1009100085B58E7F85BD85B58D7F85BD85B58460A8
:1009200085BD089595B5906895BD95B59F7B95BD9E
:1009300095B5986095BD95B5906195BD95B59F7D30
:1009400095BD83BDBB9A633049F178F46130E1F025
:10095000623051F485B58E7F85BD85B5826085BDD9
:1009600085B58B7F85BD08950895643009F16530A4
:1009700051F485B5816085BD85B58D7F85BD85B513
:10098000846085BD0895089585B5816085BD85B570
:100990008D7F85BD85B58B7F85BD089585B58160CB
:1009A00085BD85B5826085BD85B58B7F85BD089584
:1009B00085B58E7F85BD85B58D7F85BD85B5846008
:1009C00085BD0895BB9A95B59F7E95BD95B59062FE
:1009D00095BD95B5906495BD95B5986095BD8330EE
:1009E00049F178F48130E1F0823051F485B58E7FA1
:1009F00085BD85B5826085BD85B58B7F85BD089534
:100A00000895843009F1853051F485B5816085BD44
:100A100085B58D7F85BD85B5846085BD08950895B4
:100A200085B5816085BD85B58D7F85BD85B58B7F9D
:100A300085BD089585B5816085BD85B5826085BD1C
:100A400085B58B7F85BD089585B58E7F85BD85B5C0
:100A50008D7F85BD85B5846085BD0895682F70E064
:100A600090E080E00E94CD0523E333E343E250E4CD
:100A70000E9431060E949C0563BD089585B58E7F56
:100A800085BD85B58D7F85BD85B58B7F85BD85B5DC
:100A9000806185BD85B58F7D85BD08951F920F92BC
:100AA0000FB60F9211242F933F934F935F936F9341
:100AB0007F938F939F93AF93BF93EF93FF93E091B7
:100AC0007700F09178000995FF91EF91BF91AF9178
:100AD0009F918F917F916F915F914F913F912F9156
:100AE0000F900FBE0F901F9018951F920F920FB688
:100AF0000F9211242F933F934F935F936F937F93A4
:100B00008F939F93AF93BF93EF93FF93E091750003
:100B1000F09176000995FF91EF91BF91AF919F9170
:100B20008F917F916F915F914F913F912F910F9096
:100B30000FBE0F901F9018950E94100688F09F57C7
:100B400098F0B92F9927B751B0F0E1F0660F771FF1
:100B5000881F991F1AF0BA95C9F714C0B13091F0E7
:100B60000E942A06B1E008950C942A06672F782F78
:100B70008827B85F39F0B93FCCF3869577956795AC
:100B8000B395D9F73EF490958095709561957F4F18
:100B90008F4F9F4F0895E89409C097FB3EF49095BE
:100BA0008095709561957F4F8F4F9F4F9923A9F046
:100BB000F92F96E9BB279395F695879577956795D5
:100BC000B795F111F8CFFAF4BB0F11F460FF1BC019
:100BD0006F5F7F4F8F4F9F4F16C0882311F096E9AC
:100BE00011C0772321F09EE8872F762F05C066235A
:100BF00071F096E8862F70E060E02AF09A95660F13
:100C0000771F881FDAF7880F9695879597F90895CB
:100C100057FD9058440F551F59F05F3F71F04795AD
:100C2000880F97FB991F61F09F3F79F08795089592
:100C3000121613061406551FF2CF4695F1DF08C0B1
:100C4000161617061806991FF1CF869571056105CE
:100C500008940895E894BB2766277727CB0197F976
:100C600008950E9444060C94B5060E94A70638F029
:100C70000E94AE0620F0952311F00C949E060C9471
:100C8000A40611240C942B060E94080670F3959F6D
:100C9000C1F3950F50E0551F629FF001729FBB2773
:100CA000F00DB11D639FAA27F00DB11DAA1F649F0F
:100CB0006627B00DA11D661F829F2227B00DA11DC2
:100CC000621F739FB00DA11D621F839FA00D611D48
:100CD000221F749F3327A00D611D231F849F600D69
:100CE000211D822F762F6A2F11249F5750409AF092
:100CF000F1F088234AF0EE0FFF1FBB1F661F771F1E
:100D0000881F91505040A9F79E3F510580F00C94E8
:100D10009E060C942B065F3FE4F3983ED4F3869531
:100D200077956795B795F795E7959F5FC1F7FE2B88
:100D3000880F911D9695879597F9089597F99F6764
:100D400080E870E060E008959FEF80EC0895002453
:100D50000A941616170618060906089500240A9420
:100D600012161306140605060895092E0394000CA6
:100D700011F4882352F0BB0F40F4BF2B11F460FF35
:100D800004C06F5F7F4F8F4F9F4F0895F894FFCF40
:0C0D90000A0A3F065B4F666D7D077F6F0F
:00000001FF
